{
  "_format": "hh-sol-artifact-1",
  "contractName": "Vault",
  "sourceName": "contracts/Vault.sol",
  "abi": [
    {
      "inputs": [
        {
          "internalType": "address",
          "name": "_token",
          "type": "address"
        },
        {
          "internalType": "address",
          "name": "_devAddress",
          "type": "address"
        }
      ],
      "stateMutability": "nonpayable",
      "type": "constructor"
    },
    {
      "inputs": [
        {
          "internalType": "address",
          "name": "owner",
          "type": "address"
        }
      ],
      "name": "OwnableInvalidOwner",
      "type": "error"
    },
    {
      "inputs": [
        {
          "internalType": "address",
          "name": "account",
          "type": "address"
        }
      ],
      "name": "OwnableUnauthorizedAccount",
      "type": "error"
    },
    {
      "anonymous": false,
      "inputs": [
        {
          "indexed": true,
          "internalType": "address",
          "name": "previousOwner",
          "type": "address"
        },
        {
          "indexed": true,
          "internalType": "address",
          "name": "newOwner",
          "type": "address"
        }
      ],
      "name": "OwnershipTransferred",
      "type": "event"
    },
    {
      "anonymous": false,
      "inputs": [
        {
          "indexed": false,
          "internalType": "uint256",
          "name": "bTBAs",
          "type": "uint256"
        },
        {
          "indexed": true,
          "internalType": "address",
          "name": "account",
          "type": "address"
        }
      ],
      "name": "vTBADBBought",
      "type": "event"
    },
    {
      "anonymous": false,
      "inputs": [
        {
          "indexed": false,
          "internalType": "uint256",
          "name": "sTBAs",
          "type": "uint256"
        },
        {
          "indexed": true,
          "internalType": "address",
          "name": "account",
          "type": "address"
        }
      ],
      "name": "vTBADBSold",
      "type": "event"
    },
    {
      "inputs": [],
      "name": "admin",
      "outputs": [
        {
          "internalType": "address",
          "name": "",
          "type": "address"
        }
      ],
      "stateMutability": "view",
      "type": "function"
    },
    {
      "inputs": [
        {
          "internalType": "bytes",
          "name": "signature",
          "type": "bytes"
        },
        {
          "internalType": "address",
          "name": "_user",
          "type": "address"
        },
        {
          "internalType": "uint256",
          "name": "_amount",
          "type": "uint256"
        },
        {
          "internalType": "uint256",
          "name": "_deadline",
          "type": "uint256"
        },
        {
          "internalType": "uint256",
          "name": "nonce",
          "type": "uint256"
        }
      ],
      "name": "buyvTBA",
      "outputs": [],
      "stateMutability": "nonpayable",
      "type": "function"
    },
    {
      "inputs": [],
      "name": "dev",
      "outputs": [
        {
          "internalType": "address",
          "name": "",
          "type": "address"
        }
      ],
      "stateMutability": "view",
      "type": "function"
    },
    {
      "inputs": [],
      "name": "exchangeRate",
      "outputs": [
        {
          "internalType": "uint256",
          "name": "",
          "type": "uint256"
        }
      ],
      "stateMutability": "view",
      "type": "function"
    },
    {
      "inputs": [],
      "name": "fees",
      "outputs": [
        {
          "internalType": "uint256",
          "name": "",
          "type": "uint256"
        }
      ],
      "stateMutability": "view",
      "type": "function"
    },
    {
      "inputs": [
        {
          "internalType": "uint256",
          "name": "",
          "type": "uint256"
        }
      ],
      "name": "nonces",
      "outputs": [
        {
          "internalType": "bool",
          "name": "",
          "type": "bool"
        }
      ],
      "stateMutability": "view",
      "type": "function"
    },
    {
      "inputs": [],
      "name": "owner",
      "outputs": [
        {
          "internalType": "address",
          "name": "",
          "type": "address"
        }
      ],
      "stateMutability": "view",
      "type": "function"
    },
    {
      "inputs": [],
      "name": "renounceOwnership",
      "outputs": [],
      "stateMutability": "nonpayable",
      "type": "function"
    },
    {
      "inputs": [
        {
          "internalType": "bytes",
          "name": "signature",
          "type": "bytes"
        },
        {
          "internalType": "address",
          "name": "_user",
          "type": "address"
        },
        {
          "internalType": "uint256",
          "name": "_amount",
          "type": "uint256"
        },
        {
          "internalType": "uint256",
          "name": "_deadline",
          "type": "uint256"
        },
        {
          "internalType": "uint256",
          "name": "nonce",
          "type": "uint256"
        }
      ],
      "name": "sellvTBA",
      "outputs": [],
      "stateMutability": "nonpayable",
      "type": "function"
    },
    {
      "inputs": [
        {
          "internalType": "address",
          "name": "_dev",
          "type": "address"
        }
      ],
      "name": "setDevAddr",
      "outputs": [],
      "stateMutability": "nonpayable",
      "type": "function"
    },
    {
      "inputs": [
        {
          "internalType": "uint256",
          "name": "_exchangeRate",
          "type": "uint256"
        }
      ],
      "name": "setExchangeRate",
      "outputs": [],
      "stateMutability": "nonpayable",
      "type": "function"
    },
    {
      "inputs": [
        {
          "internalType": "uint256",
          "name": "_fees",
          "type": "uint256"
        }
      ],
      "name": "setFees",
      "outputs": [],
      "stateMutability": "nonpayable",
      "type": "function"
    },
    {
      "inputs": [
        {
          "internalType": "address",
          "name": "_ownerAddress",
          "type": "address"
        }
      ],
      "name": "setOwnerAddress",
      "outputs": [],
      "stateMutability": "nonpayable",
      "type": "function"
    },
    {
      "inputs": [
        {
          "internalType": "address",
          "name": "_token",
          "type": "address"
        }
      ],
      "name": "setToken",
      "outputs": [],
      "stateMutability": "nonpayable",
      "type": "function"
    },
    {
      "inputs": [],
      "name": "token",
      "outputs": [
        {
          "internalType": "address",
          "name": "",
          "type": "address"
        }
      ],
      "stateMutability": "view",
      "type": "function"
    },
    {
      "inputs": [
        {
          "internalType": "address",
          "name": "newOwner",
          "type": "address"
        }
      ],
      "name": "transferOwnership",
      "outputs": [],
      "stateMutability": "nonpayable",
      "type": "function"
    },
    {
      "inputs": [
        {
          "internalType": "address",
          "name": "newAdmin",
          "type": "address"
        }
      ],
      "name": "updateAdmin",
      "outputs": [],
      "stateMutability": "nonpayable",
      "type": "function"
    },
    {
      "inputs": [
        {
          "internalType": "bytes",
          "name": "signature",
          "type": "bytes"
        },
        {
          "internalType": "address",
          "name": "_user",
          "type": "address"
        },
        {
          "internalType": "uint256",
          "name": "_amount",
          "type": "uint256"
        },
        {
          "internalType": "uint256",
          "name": "_deadline",
          "type": "uint256"
        },
        {
          "internalType": "uint256",
          "name": "nonce",
          "type": "uint256"
        }
      ],
      "name": "verifyInputs",
      "outputs": [
        {
          "internalType": "bool",
          "name": "",
          "type": "bool"
        }
      ],
      "stateMutability": "view",
      "type": "function"
    }
  ],
  "bytecode": "0x60a0604052674563918244f40000600455670de0b6b3a764000060055534801561002857600080fd5b5060405161117a38038061117a83398101604081905261004791610122565b338061006d57604051631e4fbdf760e01b81526000600482015260240160405180910390fd5b610076816100b6565b50600180546001600160a01b039384166001600160a01b031991821617909155600280548216331790556003805492909316911617905530608052610155565b600080546001600160a01b038381166001600160a01b0319831681178455604051919092169283917f8be0079c531659141344cd1fd0a4f28419497f9722a3daafe3b4186f6b6457e09190a35050565b80516001600160a01b038116811461011d57600080fd5b919050565b6000806040838503121561013557600080fd5b61013e83610106565b915061014c60208401610106565b90509250929050565b60805161100a610170600039600061085c015261100a6000f3fe608060405234801561001057600080fd5b50600436106101165760003560e01c80638da5cb5b116100a2578063db068e0e11610071578063db068e0e1461023a578063e2f273bd1461024d578063f2fde38b14610260578063f851a44014610273578063fc0c546a1461028657600080fd5b80638da5cb5b146101e657806391cca3db1461020b5780639af1d35a1461021e578063afd7b85d1461022757600080fd5b80633ba0b9a9116100e95780633ba0b9a91461018e5780633d18678e146101a55780634ba064e6146101b85780636ebb64a2146101cb578063715018a6146101de57600080fd5b8063141a468c1461011b578063144fa6d71461015357806330e4309c14610168578063331a6bf51461017b575b600080fd5b61013e610129366004610d80565b60066020526000908152604090205460ff1681565b60405190151581526020015b60405180910390f35b610166610161366004610db5565b610299565b005b610166610176366004610ded565b6102ee565b610166610189366004610db5565b61058a565b61019760055481565b60405190815260200161014a565b6101666101b3366004610d80565b610608565b6101666101c6366004610ded565b610648565b6101666101d9366004610db5565b6109e6565b610166610a32565b6000546001600160a01b03165b6040516001600160a01b03909116815260200161014a565b6003546101f3906001600160a01b031681565b61019760045481565b61013e610235366004610ded565b610a46565b610166610248366004610d80565b610ac0565b61016661025b366004610db5565b610aef565b61016661026e366004610db5565b610b83565b6002546101f3906001600160a01b031681565b6001546101f3906001600160a01b031681565b6002546001600160a01b031633146102cc5760405162461bcd60e51b81526004016102c390610ec9565b60405180910390fd5b600180546001600160a01b0319166001600160a01b0392909216919091179055565b84848484844282116103365760405162461bcd60e51b815260206004820152601160248201527014da59db985d1d5c9948195e1c1a5c9959607a1b60448201526064016102c3565b600083116103865760405162461bcd60e51b815260206004820152601f60248201527f416d6f756e742073686f756c642062652067726561746572207468616e20300060448201526064016102c3565b60008181526006602052604090205460ff16156103da5760405162461bcd60e51b8152602060048201526012602482015271139bdb98d948185b1c9958591e481d5cd95960721b60448201526064016102c3565b6000848484846040516020016103f39493929190610f0b565b604051602081830303815290604052805190602001209050600061041682610bbe565b905060006104248289610c11565b90506104338888888888610a46565b15156001146104785760405162461bcd60e51b8152602060048201526011602482015270496e76616c6964207369676e617475726560781b60448201526064016102c3565b6005546000906104908d670de0b6b3a7640000610f50565b61049a9190610f67565b9050600160009054906101000a90046001600160a01b03166001600160a01b031663a9059cbb8e836040518363ffffffff1660e01b81526004016104f39291906001600160a01b03929092168252602082015260400190565b6020604051808303816000875af1158015610512573d6000803e3d6000fd5b505050506040513d601f19601f820116820180604052508101906105369190610f89565b508c6001600160a01b03167f369baa131ff8309787b4506e8c090228184e21615433b688108e68a7701a1cc28260405161057291815260200190565b60405180910390a25050505050505050505050505050565b6002546001600160a01b031633146105b45760405162461bcd60e51b81526004016102c390610ec9565b6001600160a01b0381166105fc5760405162461bcd60e51b815260206004820152600f60248201526e496e76616c6964206164647265737360881b60448201526064016102c3565b61060581610b83565b50565b6002546001600160a01b031633146106325760405162461bcd60e51b81526004016102c390610ec9565b806004540361064357610643610fab565b600455565b84848484844282116106905760405162461bcd60e51b815260206004820152601160248201527014da59db985d1d5c9948195e1c1a5c9959607a1b60448201526064016102c3565b600083116106e05760405162461bcd60e51b815260206004820152601f60248201527f416d6f756e742073686f756c642062652067726561746572207468616e20300060448201526064016102c3565b60008181526006602052604090205460ff16156107345760405162461bcd60e51b8152602060048201526012602482015271139bdb98d948185b1c9958591e481d5cd95960721b60448201526064016102c3565b60008484848460405160200161074d9493929190610f0b565b604051602081830303815290604052805190602001209050600061077082610bbe565b9050600061077e8289610c11565b905061078d8888888888610a46565b15156001146107d25760405162461bcd60e51b8152602060048201526011602482015270496e76616c6964207369676e617475726560781b60448201526064016102c3565b600060646004548d6107e49190610f50565b6107ee9190610f67565b9050610802670de0b6b3a764000082610f67565b90506000610810828e610fc1565b9050670de0b6b3a7640000600554826108299190610f50565b6108339190610f67565b9050600160009054906101000a90046001600160a01b03166001600160a01b03166323b872dd8f7f0000000000000000000000000000000000000000000000000000000000000000846040518463ffffffff1660e01b81526004016108b9939291906001600160a01b039384168152919092166020820152604081019190915260600190565b6020604051808303816000875af11580156108d8573d6000803e3d6000fd5b505050506040513d601f19601f820116820180604052508101906108fc9190610f89565b5060015460035460405163a9059cbb60e01b81526001600160a01b0391821660048201526024810185905291169063a9059cbb906044016020604051808303816000875af1158015610952573d6000803e3d6000fd5b505050506040513d601f19601f820116820180604052508101906109769190610f89565b5060008b81526006602052604090819020805460ff19166001179055516001600160a01b038f16907fa54fa5d431a5d772c3837c2d24d260fb74ee363ebc814698866d2991f5f0b5ba906109cd9084815260200190565b60405180910390a2505050505050505050505050505050565b6002546001600160a01b03163314610a105760405162461bcd60e51b81526004016102c390610ec9565b600380546001600160a01b0319166001600160a01b0392909216919091179055565b610a3a610c91565b610a446000610cbe565b565b60008085858585604051602001610a609493929190610f0b565b6040516020818303038152906040528051906020012090506000610a8382610bbe565b9050610a976000546001600160a01b031690565b6001600160a01b0316610aaa828a610c11565b6001600160a01b03161498975050505050505050565b6002546001600160a01b03163314610aea5760405162461bcd60e51b81526004016102c390610ec9565b600555565b6001600160a01b038116610b375760405162461bcd60e51b815260206004820152600f60248201526e496e76616c6964206164647265737360881b60448201526064016102c3565b6002546001600160a01b03163314610b615760405162461bcd60e51b81526004016102c390610ec9565b600280546001600160a01b0319166001600160a01b0392909216919091179055565b610b8b610c91565b6001600160a01b038116610bb557604051631e4fbdf760e01b8152600060048201526024016102c3565b61060581610cbe565b6040517f19457468657265756d205369676e6564204d6573736167653a0a3332000000006020820152603c8101829052600090605c01604051602081830303815290604052805190602001209050919050565b600080600080610c2085610d0e565b6040805160008152602081018083528b905260ff8316918101919091526060810184905260808101839052929550909350915060019060a0016020604051602081039080840390855afa158015610c7b573d6000803e3d6000fd5b5050506020604051035193505050505b92915050565b6000546001600160a01b03163314610a445760405163118cdaa760e01b81523360048201526024016102c3565b600080546001600160a01b038381166001600160a01b0319831681178455604051919092169283917f8be0079c531659141344cd1fd0a4f28419497f9722a3daafe3b4186f6b6457e09190a35050565b60008060008351604114610d645760405162461bcd60e51b815260206004820152601860248201527f696e76616c6964207369676e6174757265206c656e677468000000000000000060448201526064016102c3565b50505060208101516040820151606083015160001a9193909250565b600060208284031215610d9257600080fd5b5035919050565b80356001600160a01b0381168114610db057600080fd5b919050565b600060208284031215610dc757600080fd5b610dd082610d99565b9392505050565b634e487b7160e01b600052604160045260246000fd5b600080600080600060a08688031215610e0557600080fd5b853567ffffffffffffffff80821115610e1d57600080fd5b818801915088601f830112610e3157600080fd5b813581811115610e4357610e43610dd7565b604051601f8201601f19908116603f01168101908382118183101715610e6b57610e6b610dd7565b816040528281528b6020848701011115610e8457600080fd5b826020860160208301376000602084830101528099505050505050610eab60208701610d99565b94979496505050506040830135926060810135926080909101359150565b60208082526022908201527f4f6e6c792061646d696e2063616e20706572666f726d2074686973206163746960408201526137b760f11b606082015260800190565b60609490941b6bffffffffffffffffffffffff1916845260148401929092526034830152605482015260740190565b634e487b7160e01b600052601160045260246000fd5b8082028115828204841417610c8b57610c8b610f3a565b600082610f8457634e487b7160e01b600052601260045260246000fd5b500490565b600060208284031215610f9b57600080fd5b81518015158114610dd057600080fd5b634e487b7160e01b600052600160045260246000fd5b81810381811115610c8b57610c8b610f3a56fea264697066735822122023045a4903f68ec57219fa1b831a7c2a3f20f2be0e86f804a7b23b52c03c2fa664736f6c63430008140033",
  "linkReferences": {},
  "deployedLinkReferences": {}
}